:020000040800F2
:1000000098040020C9000008050F0008110E000820
:1000100000000000000000000000000000000000E0
:100020000000000000000000000000004F0F00086A
:1000300000000000000000004D0F0008510F0008F4
:10004000DB00000800000000DB000008DB00000807
:10005000DB000008DB00000817030008DB000008D5
:1000600000000000DB000008DB000008DB000008E7
:10007000DB000008DB000008DB00000800000000D7
:10008000DB000008DB00000800000000DB000008C7
:10009000DB000008DB000008DB000008DB000008D4
:1000A000DB000008DB000008DB0000084913000843
:1000B000DB0000080348854600F03CF80048004794
:1000C000A916000898040020044880470448004707
:1000D000FEE7FEE7FEE7FEE7FEE7FEE7B10F0008FA
:1000E000B500000830B50B4601460020202201244F
:1000F00009E00D46D5409D4205D31D469540491B5C
:100100002546954040191546521E002DF1DC30BDA4
:10011000D2B201E00270401C491EFBD2704700229F
:10012000F6E710B513460A4604461946FFF7F0FFF6
:10013000204610BD064C0125064E05E0E36807CCBD
:100140002B430C3C98471034B442F7D3FFF7B6FF6B
:10015000E81600080817000870B50024012001F017
:10016000EBF9FF2501350926F60604E0641CE4B22C
:10017000012001F0B9F92946304600F0CFF90028F6
:1001800002D0642CF2D310E0642C0ED2002404E0E0
:10019000641CE4B2012001F0A7F92946304600F0C2
:1001A000BDF9002803D0642C04D3012070BD642C59
:1001B000EED3FAE7002070BDF8B500F093F8FFF732
:1001C000CBFF01256D03144C064601280ED00022FA
:1001D0002946204600F0A7F9104800F0C6F8012291
:1001E0002946204600F09FF93046F8BDFF262D36FF
:1001F0007D27FF0000222946204600F094F9304672
:1002000000F0B3F801222946204600F08CF9384668
:1002100000F0ABF8EEE7000000080048B80B000063
:1002200070B50024012001F087F9FF25013509266A
:10023000F60604E0641CE4B2012001F055F92946F9
:10024000304600F06BF9002801D0642CF2D3002472
:1002500004E0641CE4B2012001F046F9294630466E
:1002600000F05CF9002801D1642CF2D3282001F0C1
:100270003BF92946304600F051F9002800D0012012
:1002800070BD70B5002004464006050EFFF7C8FF9C
:10029000641C2843E4B2082CF6D370BDFEB50D46AD
:1002A000064600F01FF8FFF757FF002801D0012095
:1002B000FEBD00246F46FFF7E4FF3855641CE4B22E
:1002C000052CF8D36A46117850780B189078D278BC
:1002D00082189B186A461279934201D129703070B6
:1002E0000020FEBD70B5002001F026F9FF2409258D
:1002F0000134ED0600222146284600F014F91420AE
:1003000000F033F801222146284600F00CF91E20A7
:1003100001F0EAF870BD10B5042000F04FF810BDF0
:10032000704770B50024014620314A78022A03D074
:1003300004218163012416E0026813680E25AB4393
:100340001360026813685B085B0013600122056C90
:100350001346AB40C56B6B604A7000220A70416B5C
:10036000002900D08847204670BD31B500F0E2F882
:10037000009C0546601C00D0641C00F0DBF8401BAC
:10038000A042FAD338BD000070B5042810D1C402D1
:10039000084D00222146284600F0C5F801F034F946
:1003A0000548FFF7E2FF01222146284600F0BBF88E
:1003B00070BD0000000800488813000010B5044913
:1003C0004A69024202D04861FFF7DEFF10BD00001B
:1003D00000040140F8B500238DE001249C40A446B0
:1003E00022407DD04C68022C01D0122C0CD1DC08AC
:1003F000A40027183C6A5D07ED0E0F26AE40B443FB
:100400000E69AE4026433E6205685E000324B44098
:100410000F79A543BF07BF0FB7402F4307604D6853
:10042000012D05D0022D03D0112D01D0122D0ED19A
:100430008568CF68A543B7402F4387604768654606
:10044000AF430D79ED06ED0F9D403D434560C56816
:10045000A5438C68B4402C43C4604C68E40049D583
:10046000284CA56901263543A561A4699D0834403F
:100470000094254CAD002F19BC689D072E0F0F2549
:10048000B540AC430925ED06A84201D100250FE097
:100490001E4DA84201D101250AE01D4DA84201D1FF
:1004A000022505E01B4DA84201D1032500E00525EA
:1004B000B5402543BD60184C25684E689543F6034A
:1004C00000D51543256065684E689543B60300D591
:1004D00015436560A5684E689543F60202D500E0B5
:1004E00008E01543A560E5684E689543B60200D55F
:1004F0001543E5605B1C0A681446DC4000D06CE7DD
:10050000F8BD000000100240000001400004004857
:1005100000080048000C0048000401400069084041
:1005200000D001207047002A01D0816170478162AC
:100530007047000001480068704700000400002078
:1005400002480168491C0160704700000400002057
:1005500010B506480168102211430160002000F028
:1005600007F800F017F8002010BD0000002002403E
:1005700010B5044600F03AF97D21C900FFF7B2FD3D
:1005800000F030FB00222146501E00F021F8002030
:1005900010BD000008B5084881690122114381613E
:1005A000816911400091C26901040A43C261C069B6
:1005B0000840009008BD000000100240C106C90EAE
:1005C00001208840014908607047000000E100E018
:1005D00010B500F099FC10BDF8B505460068354C23
:1005E000C00352D5E0690026C00007D4E1692004A9
:1005F0000143E161E1690140012600912E48016853
:10060000C90510D40168821511430160FFF792FFFC
:10061000074604E0FFF78EFFC01B642824D8264855
:100620000068C005F6D5206A03273F02384020D075
:100630006968394081421CD0206A226AB84301218E
:1006400009040A432262226A8A4322622062C007A6
:100650000FD0FFF76FFF009008E0FFF76BFF0099E6
:10066000411A1648814201D90320F8BD206A80074B
:10067000F3D5206A6968B84308432062002E04D08D
:10068000E169012000078143E1612878C00705D0B6
:10069000206BA968800880000843206328788006C2
:1006A00005D5206B10218843E968084320630020AA
:1006B000F8BD0000001002400070004088130000E8
:1006C000F8B5054644480E460068C007C00FB04262
:1006D0000AD2414801684908490031430160006875
:1006E000C007C00FB0425CD128783C4C800705D5CC
:1006F0006068F0218843A968084360602878C007D3
:100700003FD06868012813D02168022813D08907D8
:10071000002946DA61688908890001436160FFF7B2
:1007200009FF6968074601290DD0022917D024E086
:1007300021688903ECE78901EAE7FFF7FBFEC11BAB
:100740002748814217D860680007800F0128F4D13C
:1007500017E0FFF7EFFEC11B214881420BD860680C
:100760000007800F0228F4D10BE0FFF7E3FEC11B66
:100770001B48814201D90320F8BD60680007800F43
:10078000F3D115480168C907C90FB1420BD90168F7
:1007900049084900314301600068C007C00FB042FA
:1007A00001D00120F8BD2878400706D560680721F0
:1007B00009028843E9680843606000F02DF8616829
:1007C000084A0906090F515CC84007490860002023
:1007D000FFF7CEFE0020F8BD0020024000100240CE
:1007E00088130000CE1600080800002001480068A9
:1007F0007047000008000020044805490068496867
:10080000044A4905490F515CC84070470800002060
:1008100000100240DE16000810B512A30FCB88B0FE
:100820006C460FC413A30FCB0FC416494A680C20A3
:10083000134603401448042B0FD0082B0DD193020C
:100840001B0F6C46E45CC96A04AB0907090F595CCD
:10085000D20304D5FFF746FC604308B010BD0B4837
:100860006043FAE702030405060708090A0B0C0DAA
:100870000E0F10100102030405060708090A0B0CED
:100880000D0E0F100010024000127A0000093D000A
:10089000FEB504460078D04DC00747D06868000711
:1008A000800F012807D068680007800F022809D14F
:1008B0006868C00306D52868800337D560680028BB
:1008C0007ED033E0012062680004012A11D081004B
:1008D000002A01D0052A10D02A6882432A6028689D
:1008E000884328606068002814D0FFF723FE06467E
:1008F0000CE0296801432960F4E72A680A432A606A
:10090000F7E7FFF717FE801B64286FD8286880037D
:10091000F7D50BE0FFF70EFE064604E0FFF70AFEF0
:10092000801B6428F1D828688003F7D4207801263A
:10093000800700283BDA68680007800F07D06868E6
:100940000007800F022809D16868C00306D4286810
:10095000800715D5E068012832D111E0E068002851
:10096000286815D030432860FFF7E4FD074604E00F
:10097000FFF7E0FDC01B0228C7D828688007F7D51D
:100980002868F82188432169C900084328600EE0DF
:10099000400840002860FFF7CDFD074604E0FFF760
:1009A000C9FDC01B0228B0D828688007F7D420787A
:1009B000000724D5E0690028686A10D0304300E0C1
:1009C00008E16862FFF7B6FD074604E0FFF7B2FDF5
:1009D000C01B022899D8686A8007F7D50FE0400845
:1009E00040006862FFF7A6FD074605E09DE0FFF7BF
:1009F000A1FDC01B022888D8686A8007F7D4207838
:100A000004274007002860DA00200190E869C00050
:100A100008D4E969B8060143E961E96901400120A8
:100A2000009101906D480168C90511D401688215D3
:100A300011430160FFF77EFD009005E0FFF77AFDAE
:100A40000099401A642870D864480068C005F5D53C
:100A5000A06801280AD0002801D0052810D0286AF3
:100A6000400840002862286AB84301E0286A304301
:100A70002862A068002812D0FFF75CFD00900AE011
:100A8000286A38432862F1E7FFF754FD0099411ABC
:100A90005348814249D8286A8007F5D50DE0FFF711
:100AA00049FD009006E0FFF745FD0099411A4C48CA
:100AB00081423AD8286A8007F5D40198002804D0EA
:100AC000E969012000078143E9612078C00635D536
:100AD000606901280CD0401D686B23D038436863DF
:100AE000686B400840006863FFF724FD064622E07B
:100AF000686B38436863686B30436863FFF71AFDBF
:100B0000064604E0FFF716FD801B02285BD8686BE1
:100B10008007F7D5686BF8218843A169C9000843AD
:100B200068630BE0B8436863F4E74CE0FFF702FD4D
:100B3000801B022847D8686B8007F7D4206A0028FA
:100B400046D069680907890F022943D00126360675
:100B50000228286805D0B0432860FFF7EBFC044664
:100B600033E0B0432860FFF7E5FC074604E0FFF7F9
:100B7000E1FCC01B022826D828688001F7D4E86A67
:100B8000E16A000900010843E862616AA06A08435B
:100B900069683D2212049143084368602868304325
:100BA0002860FFF7C7FC044604E0FFF7C3FC001B06
:100BB000022808D828688001F7D509E0FFF7BAFCB9
:100BC000001B022801D90320FEBD28688001F5D44E
:100BD0000020FEBD0120FEBD00100240007000405C
:100BE00088130000094910B5401E884201D9012030
:100BF00010BD074C60610321081F00F085F900203B
:100C0000A06107202061002010BD0000FFFFFF0051
:100C100000E000E070470000F8B503680446D969B9
:100C200018680D072D0F07D18A0605D5820603D552
:100C3000204600F07FFAF8BD9A68002D64D0D507F1
:100C4000ED0FFF26213606402E435DD0CE0706D09D
:100C5000C60504D501261E62E36E3343E3668F07A3
:100C600002230426002F06DAD70704D027683B6248
:100C7000E76E3743E7664F0706D5D20704D02268F0
:100C80001662E26E1A43E2660A0709D52022024084
:100C90002A4305D0236808221A62E36E1343E366F1
:100CA000E26E002AC7D0890604D5800602D5204608
:100CB00000F040FAE06E000703D420688068400628
:100CC0001CD5204600F01AFA20688168490611D523
:100CD0008168402291438160606E00280AD01249E9
:100CE0004163606EFFF71DFB0028A4D0606E416B6E
:100CF0008847F8BD2046FFF78DFFF8BD2046FFF777
:100D000089FF0020E066F8BD0A0605D5020603D576
:100D1000204600F0E5FAF8BD4906FCD54006FAD5B4
:100D2000204600F0FAF9F8BDE910000870B504009B
:100D300005D025466035687A002802D006E00120FB
:100D400070BD00202872204600F026F8242068722A
:100D500020680168490849000160204600F028FA2F
:100D60000128EDD0606A002802D0204600F04EF93C
:100D7000206841680122D202914341602068816865
:100D800008229143816020680168012211430160BB
:100D9000204600F0A0F970BD10B586B004461421BD
:100DA0006846FFF7BCF917492068884227D11648E2
:100DB0008269012189030A43826182690A4005929E
:100DC0004269C9000A434261406908400590032016
:100DD0004002009002200190002002900320039026
:100DE0000120049009206946C006FFF7F3FA0022AB
:100DF00011461B20FFF7ECFB1B20FFF7DFFB06B0C3
:100E000010BD0000003801400010024070477047DC
:100E1000FEE70000F8B5264842690121C9040A43EB
:100E2000426142690A4000924269C9000A43426134
:100E300042690A400092426949110A43426140698D
:100E40000D1108400090012229461A48FFF76BFB5C
:100E50000122170209203946C006FFF764FB164C31
:100E600000262560A6600125E660214611486560E0
:100E7000FFF7B0FA042020601048A56060600920E8
:100E80002146C006FFF7A6FA2760A660032065602A
:100E9000E06009202146C006FFF79CFA00220121EC
:100EA0000620FFF795FB0620FFF788FBF8BD000042
:100EB000001002400008004814000020000011103B
:100EC00010B50F480D490160E12149024160002140
:100ED0008160C160016181610C22C1614261016276
:100EE000302141620121090381634900C163FFF799
:100EF0001DFF002801D0FFF713FA10BD0038014094
:100F000028000020704700008307FF22DB0E9A4074
:100F10008907090E994000280BDA0007000F0838EE
:100F2000830808489B001818C36993430B43C361A7
:100F30007047830804489B001B18186890430843B7
:100F40001860704700ED00E000E400E07047704773
:100F500010B5FFF7F5FA10BD70B594B030216846B2
:100F6000FFF7DDF8002401250E94280413940F9454
:100F700009900D941094009500010C94129402268F
:100F800001950A90119408960B946846FFF780FC2F
:100F900007200C900E9401210D960F940CA8FFF7DA
:100FA0008FFB10A810951294FFF716FB14B070BDBC
:100FB000134801680122114301604168114A114040
:100FC00041600168104A11400160016801229204E9
:100FD0009143016041683F22120491434160C16A1C
:100FE00009090901C162016BFF22143291430163B7
:100FF000416B49084900416300218160704700004E
:10100000001002400CB8FF08FFFFF6FE10B5818CFF
:10101000C90707D001684A6801235B049A43836AC1
:101020001A434A60818C890707D501684A68012301
:101030001B049A43C36A1A434A60818C490707D547
:1010400001684A6801239B049A43036B1A434A6070
:10105000818C090707D501684A680123DB039A439D
:10106000436B1A434A60818CC90607D502689168B0
:1010700001231B039943836B19439160818C89067B
:1010800007D501688A6801235B039A43C36B1A433F
:101090008A60818C490612D503685A6801210905C6
:1010A000046C8A4322435A60026C8A4207D1026868
:1010B000516803235B059943436C19435160818C4C
:1010C000090607D501684A680123DB04806C9A434E
:1010D00002434A6010BD0021C16620226030427286
:1010E000827201720846704710B5406A00220146BC
:1010F00040314A834A82FFF78DFD10BD01680A68BE
:10110000FF2321339A430A6001688A68520852001B
:101110008A60202160308172704710B501680A68CA
:1011200040239A430A60202269210A54FFF76FFE88
:10113000002010BD70B50246403203466033948BE8
:101140009D7A0168222D05D08869082210438861A4
:10115000022070BD898C012685683603B54202D114
:101160000569002D0BD02140446D651C456521703B
:10117000518B491E0904090C518307D015E0456DB8
:1011800021402980416D891C4165F1E701680A68A9
:10119000FF242134A2430A6001688A685208520081
:1011A0008A6020219972FFF731FE002070BD000097
:1011B000F8B504462369A268E5691A4363691020FB
:1011C0002B43002125681A432B680E463E4F3B40B7
:1011D00013432B6023685A6803252D03AA43E5684F
:1011E0002A435A60236AA26925681A43AB680B2711
:1011F0003F02BB431343AB60344A2568954210D18C
:10120000334A126B9207920F0ED0012A05D0022AA0
:1012100005D0032A09D1022007E0042005E00820B8
:1012200003E02C4A954200D100200122E369D20359
:10123000934224D100280CD002280DD0042813D0CA
:10124000082817D001260A0912010807400F104389
:101250002FE0FFF7D1FA09E061681F4A48088018BB
:10126000FEF740FF81B2EEE7FFF7D6FA6168400073
:101270004A08F4E76168012248081204EFE70028F1
:1012800008D0022809D004280BD0082814D0012641
:101290003046F8BDFFF7B0FA05E061680F4A48082C
:1012A0000CE0FFF7B9FA61684A088018FEF71AFFE8
:1012B00080B22168C860EBE7616848088018FEF7D3
:1012C00011FF80B2E860E3E7F369FFFF00380140F7
:1012D00000100240004400400024F40000127A0094
:1012E0006921095C212901D0022070470246403261
:1012F000518A002912D0012381681B03994202D12F
:101300000169002915D0C16C4B1CC36400680978C1
:101310000185508A401E50820020704701680A688B
:1013200080239A430A6000680168402211430160EB
:10133000F2E7C16C03680988C905C90D1985C16C3C
:10134000891CC164E5E7000010B50248FFF764FCA2
:1013500010BD0000280000200FB410B503A9044BF5
:10136000044A029800F018F810BC08BC04B01847F2
:10137000751500081000002002E008C8121F08C1FF
:10138000002AFAD170477047002001E001C1121F06
:10139000002AFBD170470000FFB58DB00446002540
:1013A00006E025280AD0109A0F999047641C6D1CFE
:1013B00020780028F5D1284611B0F0BD0027012182
:1013C000484A009700E00743641C23780846203B06
:1013D00098401042F7D120782E2817D104200743D7
:1013E0006078641C2A280CD10E98641C02C80091F5
:1013F0000E900BE000990A22514330394018641CCA
:1014000000902078014630390929F3D92078002846
:10141000D1D0642808D0692806D075281ED0109A2B
:101420000F9990476D1C5BE00A200E99019001C94D
:101430000E91002802DA40422D2102E0390504D540
:101440002B216A461172012103E0F90704D0202103
:10145000F7E70BAE0B910DE00021FAE70A200E9999
:10146000019001C90E91F7E70199FEF73BFE30317B
:10147000761E31700028F7D103A8801B2030019020
:10148000780701D5009801E0012000900199884279
:1014900001DD401A00E000200027009006E002A8CD
:1014A000109AC05D0F9990476D1C7F1C0B98874266
:1014B000F5DB04E0109A30200F9990476D1C0099DD
:1014C000481E00900029F5DC05E03078109A761C63
:1014D0000F9990476D1C0199481E01900029F4DC7A
:1014E000641C65E70928010071B5E1229200104CE7
:1014F000104E009818E0904201D9134600E00346D0
:10150000A06948215943451A05D4A169814208DAE6
:10151000A942FADA05E0AD19A1698142FCDDA942D0
:10152000FADC0098C01A00900028E4D178BD0000D1
:1015300000E000E040190100FF2210B50132074928
:101540000923DB0600280A6001D0002000E001200A
:10155000486002491846FEF73DFF10BD1400002008
:101560000348C1698906FCD501482030808870474E
:10157000003801400449CA695206FCD5024AC1B28A
:1015800020321181704700000038014010B5FFF78C
:10159000E7FF10BD10B50C48FEF7E7FE0BA0FFF704
:1015A000DBFEFF24F5342046FEF7DFFE09A0FFF73F
:1015B000D3FE2046FEF7D9FE09A0FFF7CDFE204658
:1015C000FEF7D3FE10BD0000102700004154453047
:1015D0000D0A000041542B434D47463D310D0A0092
:1015E00041542B435343533D2247534D220D0A0090
:1015F00010B50448FFF7CAFF492801D100F004F8EC
:10160000002010BD0C00002070B50124154D6403AE
:10161000002221462846FEF786FF13491348FEF7AD
:101620003DFE13A0FFF798FEFF26F5363046FEF785
:101630009CFE0D4802780D48017813A0FFF78CFE40
:101640003046FEF792FE16491A2000F03CF8154885
:10165000FEF78BFE012221462846FEF764FF00209C
:1016600070BD0000000800480100002000000020BC
:1016700041542B434D47533D2231383339343036B2
:1016800033393931220D0A0074656D703A202564B2
:10169000202C2068756D693A2025640D0A00000031
:1016A00010000020B80B0000FEF752FFFFF754FCBB
:1016B000FFF7B0FBFFF704FCFEF77EFDFFF76AFFC4
:1016C000FFF796FFFCE710B5FFF754FF10BD0000D1
:1016D00000000000000001020304060708090000E2
:1016E00000000102030400000817000800000020A9
:1016F00014000000781300081C17000814000020D4
:1017000084040000881300080000000000000000AE
:0C17100000127A00000000000000000041
:04000005080000B53A
:00000001FF
